{
  "_format": "hh-sol-artifact-1",
  "contractName": "EcoActionVerifier",
  "sourceName": "contracts/EcoActionVerifier.sol",
  "abi": [
    {
      "inputs": [
        {
          "internalType": "address",
          "name": "tokenAddress",
          "type": "address"
        }
      ],
      "stateMutability": "nonpayable",
      "type": "constructor"
    },
    {
      "inputs": [
        {
          "internalType": "address",
          "name": "owner",
          "type": "address"
        }
      ],
      "name": "OwnableInvalidOwner",
      "type": "error"
    },
    {
      "inputs": [
        {
          "internalType": "address",
          "name": "account",
          "type": "address"
        }
      ],
      "name": "OwnableUnauthorizedAccount",
      "type": "error"
    },
    {
      "anonymous": false,
      "inputs": [
        {
          "indexed": true,
          "internalType": "address",
          "name": "user",
          "type": "address"
        },
        {
          "indexed": false,
          "internalType": "string",
          "name": "description",
          "type": "string"
        },
        {
          "indexed": false,
          "internalType": "uint256",
          "name": "timestamp",
          "type": "uint256"
        }
      ],
      "name": "ActionSubmitted",
      "type": "event"
    },
    {
      "anonymous": false,
      "inputs": [
        {
          "indexed": true,
          "internalType": "address",
          "name": "user",
          "type": "address"
        },
        {
          "indexed": false,
          "internalType": "uint256",
          "name": "reward",
          "type": "uint256"
        },
        {
          "indexed": false,
          "internalType": "uint256",
          "name": "timestamp",
          "type": "uint256"
        }
      ],
      "name": "ActionVerified",
      "type": "event"
    },
    {
      "anonymous": false,
      "inputs": [
        {
          "indexed": true,
          "internalType": "address",
          "name": "previousOwner",
          "type": "address"
        },
        {
          "indexed": true,
          "internalType": "address",
          "name": "newOwner",
          "type": "address"
        }
      ],
      "name": "OwnershipTransferred",
      "type": "event"
    },
    {
      "inputs": [
        {
          "internalType": "uint256",
          "name": "",
          "type": "uint256"
        }
      ],
      "name": "actions",
      "outputs": [
        {
          "internalType": "address",
          "name": "user",
          "type": "address"
        },
        {
          "internalType": "string",
          "name": "description",
          "type": "string"
        },
        {
          "internalType": "uint256",
          "name": "reward",
          "type": "uint256"
        },
        {
          "internalType": "bool",
          "name": "verified",
          "type": "bool"
        },
        {
          "internalType": "uint256",
          "name": "timestamp",
          "type": "uint256"
        }
      ],
      "stateMutability": "view",
      "type": "function"
    },
    {
      "inputs": [],
      "name": "getActionCount",
      "outputs": [
        {
          "internalType": "uint256",
          "name": "",
          "type": "uint256"
        }
      ],
      "stateMutability": "view",
      "type": "function"
    },
    {
      "inputs": [],
      "name": "owner",
      "outputs": [
        {
          "internalType": "address",
          "name": "",
          "type": "address"
        }
      ],
      "stateMutability": "view",
      "type": "function"
    },
    {
      "inputs": [],
      "name": "renounceOwnership",
      "outputs": [],
      "stateMutability": "nonpayable",
      "type": "function"
    },
    {
      "inputs": [
        {
          "internalType": "string",
          "name": "description",
          "type": "string"
        }
      ],
      "name": "submitAction",
      "outputs": [],
      "stateMutability": "nonpayable",
      "type": "function"
    },
    {
      "inputs": [],
      "name": "token",
      "outputs": [
        {
          "internalType": "contract GreenCreditToken",
          "name": "",
          "type": "address"
        }
      ],
      "stateMutability": "view",
      "type": "function"
    },
    {
      "inputs": [
        {
          "internalType": "address",
          "name": "",
          "type": "address"
        }
      ],
      "name": "totalEarned",
      "outputs": [
        {
          "internalType": "uint256",
          "name": "",
          "type": "uint256"
        }
      ],
      "stateMutability": "view",
      "type": "function"
    },
    {
      "inputs": [
        {
          "internalType": "address",
          "name": "newOwner",
          "type": "address"
        }
      ],
      "name": "transferOwnership",
      "outputs": [],
      "stateMutability": "nonpayable",
      "type": "function"
    },
    {
      "inputs": [
        {
          "internalType": "uint256",
          "name": "actionId",
          "type": "uint256"
        },
        {
          "internalType": "uint256",
          "name": "reward",
          "type": "uint256"
        }
      ],
      "name": "verifyAction",
      "outputs": [],
      "stateMutability": "nonpayable",
      "type": "function"
    }
  ],
  "bytecode": "0x608060405234801561001057600080fd5b50604051610a62380380610a6283398101604081905261002f916100d4565b338061005557604051631e4fbdf760e01b81526000600482015260240160405180910390fd5b61005e81610084565b50600180546001600160a01b0319166001600160a01b0392909216919091179055610104565b600080546001600160a01b038381166001600160a01b0319831681178455604051919092169283917f8be0079c531659141344cd1fd0a4f28419497f9722a3daafe3b4186f6b6457e09190a35050565b6000602082840312156100e657600080fd5b81516001600160a01b03811681146100fd57600080fd5b9392505050565b61094f806101136000396000f3fe608060405234801561001057600080fd5b50600436106100935760003560e01c8063715018a611610066578063715018a6146100f757806383240f83146100ff5780638da5cb5b14610123578063f2fde38b14610148578063fc0c546a1461015b57600080fd5b80631da58417146100985780635c0b0445146100ad5780635eecd218146100c0578063649aca4a146100d7575b600080fd5b6100ab6100a63660046105ce565b61016e565b005b6100ab6100bb36600461067f565b61028d565b6002545b6040519081526020015b60405180910390f35b6100c46100e53660046106a1565b60036020526000908152604090205481565b6100ab61040f565b61011261010d3660046106d1565b610423565b6040516100ce959493929190610730565b6000546001600160a01b03165b6040516001600160a01b0390911681526020016100ce565b6100ab6101563660046106a1565b6104fd565b600154610130906001600160a01b031681565b6040805160a0810182523381526020810183815260009282018390526060820183905242608083015260028054600181018255935281517f405787fa12a823e0f2b7631cc41b3ba8828b3321ca811111fa75cd3aa3bb5ace600590940293840180546001600160a01b0319166001600160a01b039092169190911781559051919290917f405787fa12a823e0f2b7631cc41b3ba8828b3321ca811111fa75cd3aa3bb5acf9091019061022090826107fa565b506040828101516002830155606083015160038301805460ff19169115159190911790556080909201516004909101555133907fb15ce51073b951c48b35405d60cb9e4ac61a4231384332be29ca11829fb95b869061028290849042906108ba565b60405180910390a250565b61029561053b565b6000600283815481106102aa576102aa6108dc565b60009182526020909120600590910201600381015490915060ff16156103175760405162461bcd60e51b815260206004820152601760248201527f416374696f6e20616c726561647920766572696669656400000000000000000060448201526064015b60405180910390fd5b6003808201805460ff191660011790556002820183905581546001600160a01b031660009081526020919091526040812080548492906103589084906108f2565b909155505060015481546040516340c10f1960e01b81526001600160a01b039182166004820152602481018590529116906340c10f1990604401600060405180830381600087803b1580156103ac57600080fd5b505af11580156103c0573d6000803e3d6000fd5b50508254604080518681524260208201526001600160a01b0390921693507f494a2f709d9b6e13eb408c6793dada13eef7a95f11af4ee63eb55b1447626ee392500160405180910390a2505050565b61041761053b565b6104216000610568565b565b6002818154811061043357600080fd5b6000918252602090912060059091020180546001820180546001600160a01b0390921693509061046290610771565b80601f016020809104026020016040519081016040528092919081815260200182805461048e90610771565b80156104db5780601f106104b0576101008083540402835291602001916104db565b820191906000526020600020905b8154815290600101906020018083116104be57829003601f168201915b50505050600283015460038401546004909401549293909260ff909116915085565b61050561053b565b6001600160a01b03811661052f57604051631e4fbdf760e01b81526000600482015260240161030e565b61053881610568565b50565b6000546001600160a01b031633146104215760405163118cdaa760e01b815233600482015260240161030e565b600080546001600160a01b038381166001600160a01b0319831681178455604051919092169283917f8be0079c531659141344cd1fd0a4f28419497f9722a3daafe3b4186f6b6457e09190a35050565b634e487b7160e01b600052604160045260246000fd5b6000602082840312156105e057600080fd5b813567ffffffffffffffff808211156105f857600080fd5b818401915084601f83011261060c57600080fd5b81358181111561061e5761061e6105b8565b604051601f8201601f19908116603f01168101908382118183101715610646576106466105b8565b8160405282815287602084870101111561065f57600080fd5b826020860160208301376000928101602001929092525095945050505050565b6000806040838503121561069257600080fd5b50508035926020909101359150565b6000602082840312156106b357600080fd5b81356001600160a01b03811681146106ca57600080fd5b9392505050565b6000602082840312156106e357600080fd5b5035919050565b6000815180845260005b81811015610710576020818501810151868301820152016106f4565b506000602082860101526020601f19601f83011685010191505092915050565b6001600160a01b038616815260a060208201819052600090610754908301876106ea565b604083019590955250911515606083015260809091015292915050565b600181811c9082168061078557607f821691505b6020821081036107a557634e487b7160e01b600052602260045260246000fd5b50919050565b601f8211156107f557600081815260208120601f850160051c810160208610156107d25750805b601f850160051c820191505b818110156107f1578281556001016107de565b5050505b505050565b815167ffffffffffffffff811115610814576108146105b8565b610828816108228454610771565b846107ab565b602080601f83116001811461085d57600084156108455750858301515b600019600386901b1c1916600185901b1785556107f1565b600085815260208120601f198616915b8281101561088c5788860151825594840194600190910190840161086d565b50858210156108aa5787850151600019600388901b60f8161c191681555b5050505050600190811b01905550565b6040815260006108cd60408301856106ea565b90508260208301529392505050565b634e487b7160e01b600052603260045260246000fd5b8082018082111561091357634e487b7160e01b600052601160045260246000fd5b9291505056fea2646970667358221220cd5fd1ad361aa89d0bad5cd4c4ed37c5bd7efc74a6aa1c6ba65e2ae2eb3e41dc64736f6c63430008140033",
  "linkReferences": {},
  "deployedLinkReferences": {}
}